{
  "contractName": "CoinTypeFactory",
  "abi": [
    {
      "constant": true,
      "inputs": [],
      "name": "getCoinType",
      "outputs": [
        {
          "name": "",
          "type": "uint8"
        }
      ],
      "payable": false,
      "stateMutability": "pure",
      "type": "function"
    }
  ],
  "bytecode": "0x60606040523415600e57600080fd5b60a58061001c6000396000f300606060405260043610603f576000357c0100000000000000000000000000000000000000000000000000000000900463ffffffff16806394149c1a146044575b600080fd5b3415604e57600080fd5b60546070565b604051808260ff1660ff16815260200191505060405180910390f35b600060019050905600a165627a7a723058208df6e6bf5e69446efdef7ec61c0cb610a47b3ff375b76dbf8dd0995bd7ab0edf0029",
  "source": "pragma solidity ^0.4.18;\n\ncontract CoinTypeFactory {\n\nfunction getCoinType() public pure returns (uint8) {\n        return 1;\n    }\n}\n",
  "sourcePath": "/Users/simondrake/Desktop/rewardscoin/contracts/CoinTypeFactory.sol",
  "compiler": {
    "name": "solc",
    "version": "0.4.18+commit.9cf6e910.Emscripten.clang"
  },
  "schemaVersion": "1.0.1",
  "updatedAt": "2017-12-21T14:54:37.032Z"
}