{
  "contractName": "Ownable",
  "abi": [
    {
      "constant": true,
      "inputs": [],
      "name": "contractOwner",
      "outputs": [
        {
          "name": "",
          "type": "address"
        }
      ],
      "payable": false,
      "stateMutability": "view",
      "type": "function"
    },
    {
      "constant": false,
      "inputs": [
        {
          "name": "newOwner",
          "type": "address"
        }
      ],
      "name": "transferOwnership",
      "outputs": [],
      "payable": false,
      "stateMutability": "nonpayable",
      "type": "function"
    },
    {
      "inputs": [],
      "payable": false,
      "stateMutability": "nonpayable",
      "type": "constructor"
    }
  ],
  "bytecode": "0x6060604052341561000f57600080fd5b336000806101000a81548173ffffffffffffffffffffffffffffffffffffffff021916908373ffffffffffffffffffffffffffffffffffffffff1602179055506102058061005e6000396000f30060606040526004361061004c576000357c0100000000000000000000000000000000000000000000000000000000900463ffffffff168063ce606ee014610051578063f2fde38b146100a6575b600080fd5b341561005c57600080fd5b6100646100df565b604051808273ffffffffffffffffffffffffffffffffffffffff1673ffffffffffffffffffffffffffffffffffffffff16815260200191505060405180910390f35b34156100b157600080fd5b6100dd600480803573ffffffffffffffffffffffffffffffffffffffff16906020019091905050610104565b005b6000809054906101000a900473ffffffffffffffffffffffffffffffffffffffff1681565b6000809054906101000a900473ffffffffffffffffffffffffffffffffffffffff1673ffffffffffffffffffffffffffffffffffffffff163373ffffffffffffffffffffffffffffffffffffffff1614151561015f57600080fd5b600073ffffffffffffffffffffffffffffffffffffffff168173ffffffffffffffffffffffffffffffffffffffff161415156101d657806000806101000a81548173ffffffffffffffffffffffffffffffffffffffff021916908373ffffffffffffffffffffffffffffffffffffffff1602179055505b505600a165627a7a72305820867210a14c5ebb8c9c10bafe18a425c2e7d2901b9042976fc998b384149c19e50029",
  "source": "pragma solidity ^0.4.18;\n\ncontract Ownable {\n    address public contractOwner;\n\n    function Ownable() public { contractOwner = msg.sender; }\n\n    /**\n    * @dev Allows the current owner to transfer control of the contract to a newOwner.\n    * @param newOwner The address to transfer ownership to.\n    */\n    function transferOwnership(address newOwner) onlyOwner {\n      if (newOwner != address(0)) {\n          contractOwner = newOwner;\n      }\n    }\n    \n\n    // This contract only defines a modifier but does not use\n    // it: it will be used in derived contracts.\n    // The function body is inserted where the special symbol\n    // `_;` in the definition of a modifier appears.\n    // This means that if the owner calls this function, the\n    // function is executed and otherwise, an exception is\n    // thrown.\n    modifier onlyOwner {\n        require(msg.sender == contractOwner);\n        _;\n    }\n}\n",
  "sourcePath": "/Users/simondrake/Desktop/rewardscoin/contracts/Ownable.sol",
  "compiler": {
    "name": "solc",
    "version": "0.4.18+commit.9cf6e910.Emscripten.clang"
  },
  "schemaVersion": "1.0.1",
  "updatedAt": "2017-12-21T14:54:35.327Z"
}