{
  "contractName": "RewardsCoinBase",
  "abi": [
    {
      "constant": false,
      "inputs": [
        {
          "name": "_to",
          "type": "address"
        },
        {
          "name": "_tokenId",
          "type": "uint256"
        }
      ],
      "name": "approve",
      "outputs": [],
      "payable": false,
      "stateMutability": "nonpayable",
      "type": "function"
    },
    {
      "constant": true,
      "inputs": [],
      "name": "implementsERC721",
      "outputs": [
        {
          "name": "",
          "type": "bool"
        }
      ],
      "payable": false,
      "stateMutability": "pure",
      "type": "function"
    },
    {
      "constant": true,
      "inputs": [],
      "name": "totalSupply",
      "outputs": [
        {
          "name": "",
          "type": "uint256"
        }
      ],
      "payable": false,
      "stateMutability": "view",
      "type": "function"
    },
    {
      "constant": false,
      "inputs": [
        {
          "name": "_from",
          "type": "address"
        },
        {
          "name": "_to",
          "type": "address"
        },
        {
          "name": "_tokenId",
          "type": "uint256"
        }
      ],
      "name": "transferFrom",
      "outputs": [],
      "payable": false,
      "stateMutability": "nonpayable",
      "type": "function"
    },
    {
      "constant": true,
      "inputs": [
        {
          "name": "",
          "type": "uint256"
        }
      ],
      "name": "rewardsCoinIndexToApproved",
      "outputs": [
        {
          "name": "",
          "type": "address"
        }
      ],
      "payable": false,
      "stateMutability": "view",
      "type": "function"
    },
    {
      "constant": false,
      "inputs": [],
      "name": "unpause",
      "outputs": [],
      "payable": false,
      "stateMutability": "nonpayable",
      "type": "function"
    },
    {
      "constant": true,
      "inputs": [],
      "name": "coinTypeFactoryAddress",
      "outputs": [
        {
          "name": "",
          "type": "address"
        }
      ],
      "payable": false,
      "stateMutability": "view",
      "type": "function"
    },
    {
      "constant": true,
      "inputs": [],
      "name": "paused",
      "outputs": [
        {
          "name": "",
          "type": "bool"
        }
      ],
      "payable": false,
      "stateMutability": "view",
      "type": "function"
    },
    {
      "constant": true,
      "inputs": [
        {
          "name": "_tokenId",
          "type": "uint256"
        }
      ],
      "name": "ownerOf",
      "outputs": [
        {
          "name": "owner",
          "type": "address"
        }
      ],
      "payable": false,
      "stateMutability": "view",
      "type": "function"
    },
    {
      "constant": true,
      "inputs": [
        {
          "name": "_owner",
          "type": "address"
        }
      ],
      "name": "balanceOf",
      "outputs": [
        {
          "name": "count",
          "type": "uint256"
        }
      ],
      "payable": false,
      "stateMutability": "view",
      "type": "function"
    },
    {
      "constant": false,
      "inputs": [],
      "name": "pause",
      "outputs": [],
      "payable": false,
      "stateMutability": "nonpayable",
      "type": "function"
    },
    {
      "constant": false,
      "inputs": [
        {
          "name": "addr",
          "type": "address"
        }
      ],
      "name": "setCoinTypeFactoryAddress",
      "outputs": [],
      "payable": false,
      "stateMutability": "nonpayable",
      "type": "function"
    },
    {
      "constant": false,
      "inputs": [
        {
          "name": "_to",
          "type": "address"
        },
        {
          "name": "_tokenId",
          "type": "uint256"
        }
      ],
      "name": "transfer",
      "outputs": [],
      "payable": false,
      "stateMutability": "nonpayable",
      "type": "function"
    },
    {
      "constant": false,
      "inputs": [
        {
          "name": "addr",
          "type": "address"
        }
      ],
      "name": "createAndSendCoin",
      "outputs": [],
      "payable": false,
      "stateMutability": "nonpayable",
      "type": "function"
    },
    {
      "constant": true,
      "inputs": [
        {
          "name": "",
          "type": "uint256"
        }
      ],
      "name": "rewardsCoinIndexToOwner",
      "outputs": [
        {
          "name": "",
          "type": "address"
        }
      ],
      "payable": false,
      "stateMutability": "view",
      "type": "function"
    },
    {
      "constant": true,
      "inputs": [],
      "name": "contractOwner",
      "outputs": [
        {
          "name": "",
          "type": "address"
        }
      ],
      "payable": false,
      "stateMutability": "view",
      "type": "function"
    },
    {
      "constant": false,
      "inputs": [
        {
          "name": "newOwner",
          "type": "address"
        }
      ],
      "name": "transferOwnership",
      "outputs": [],
      "payable": false,
      "stateMutability": "nonpayable",
      "type": "function"
    },
    {
      "inputs": [],
      "payable": false,
      "stateMutability": "nonpayable",
      "type": "constructor"
    },
    {
      "anonymous": false,
      "inputs": [
        {
          "indexed": true,
          "name": "from",
          "type": "address"
        },
        {
          "indexed": true,
          "name": "to",
          "type": "address"
        },
        {
          "indexed": true,
          "name": "tokenId",
          "type": "uint256"
        }
      ],
      "name": "Transfer",
      "type": "event"
    },
    {
      "anonymous": false,
      "inputs": [
        {
          "indexed": true,
          "name": "owner",
          "type": "address"
        },
        {
          "indexed": true,
          "name": "approved",
          "type": "address"
        },
        {
          "indexed": true,
          "name": "tokenId",
          "type": "uint256"
        }
      ],
      "name": "Approval",
      "type": "event"
    },
    {
      "anonymous": false,
      "inputs": [],
      "name": "Pause",
      "type": "event"
    },
    {
      "anonymous": false,
      "inputs": [],
      "name": "Unpause",
      "type": "event"
    }
  ],
  "bytecode": "0x606060405260008060146101000a81548160ff021916908315150217905550341561002957600080fd5b336000806101000a81548173ffffffffffffffffffffffffffffffffffffffff021916908373ffffffffffffffffffffffffffffffffffffffff160217905550336000806101000a81548173ffffffffffffffffffffffffffffffffffffffff021916908373ffffffffffffffffffffffffffffffffffffffff160217905550610f6d806100b86000396000f3006060604052600436106100f1576000357c0100000000000000000000000000000000000000000000000000000000900463ffffffff168063095ea7b3146100f65780631051db341461013857806318160ddd1461016557806323b872dd1461018e5780633463529f146101ef5780633f4ba83a1461025257806350524a56146102675780635c975abb146102bc5780636352211e146102e957806370a082311461034c5780638456cb591461039957806399d28682146103ae578063a9059cbb146103e7578063b4b8b60814610429578063b59b115a14610462578063ce606ee0146104c5578063f2fde38b1461051a575b600080fd5b341561010157600080fd5b610136600480803573ffffffffffffffffffffffffffffffffffffffff16906020019091908035906020019091905050610553565b005b341561014357600080fd5b61014b6105ed565b604051808215151515815260200191505060405180910390f35b341561017057600080fd5b6101786105f6565b6040518082815260200191505060405180910390f35b341561019957600080fd5b6101ed600480803573ffffffffffffffffffffffffffffffffffffffff1690602001909190803573ffffffffffffffffffffffffffffffffffffffff16906020019091908035906020019091905050610606565b005b34156101fa57600080fd5b610210600480803590602001909190505061065c565b604051808273ffffffffffffffffffffffffffffffffffffffff1673ffffffffffffffffffffffffffffffffffffffff16815260200191505060405180910390f35b341561025d57600080fd5b61026561068f565b005b341561027257600080fd5b61027a61074d565b604051808273ffffffffffffffffffffffffffffffffffffffff1673ffffffffffffffffffffffffffffffffffffffff16815260200191505060405180910390f35b34156102c757600080fd5b6102cf610773565b604051808215151515815260200191505060405180910390f35b34156102f457600080fd5b61030a6004808035906020019091905050610786565b604051808273ffffffffffffffffffffffffffffffffffffffff1673ffffffffffffffffffffffffffffffffffffffff16815260200191505060405180910390f35b341561035757600080fd5b610383600480803573ffffffffffffffffffffffffffffffffffffffff169060200190919050506107ff565b6040518082815260200191505060405180910390f35b34156103a457600080fd5b6103ac610848565b005b34156103b957600080fd5b6103e5600480803573ffffffffffffffffffffffffffffffffffffffff16906020019091905050610908565b005b34156103f257600080fd5b610427600480803573ffffffffffffffffffffffffffffffffffffffff1690602001909190803590602001909190505061094c565b005b341561043457600080fd5b610460600480803573ffffffffffffffffffffffffffffffffffffffff169060200190919050506109c8565b005b341561046d57600080fd5b6104836004808035906020019091905050610a0b565b604051808273ffffffffffffffffffffffffffffffffffffffff1673ffffffffffffffffffffffffffffffffffffffff16815260200191505060405180910390f35b34156104d057600080fd5b6104d8610a3e565b604051808273ffffffffffffffffffffffffffffffffffffffff1673ffffffffffffffffffffffffffffffffffffffff16815260200191505060405180910390f35b341561052557600080fd5b610551600480803573ffffffffffffffffffffffffffffffffffffffff16906020019091905050610a63565b005b600060149054906101000a900460ff1615151561056f57600080fd5b6105793382610b38565b151561058457600080fd5b61058e8183610ba4565b808273ffffffffffffffffffffffffffffffffffffffff163373ffffffffffffffffffffffffffffffffffffffff167f8c5be1e5ebec7d5bd14f71427d1e84f3dd0314c0f7b2291e5b200ac8c7c3b92560405160405180910390a45050565b60006001905090565b6000600160028054905003905090565b600060149054906101000a900460ff1615151561062257600080fd5b61062c3382610bfa565b151561063757600080fd5b6106418382610b38565b151561064c57600080fd5b610657838383610c66565b505050565b60056020528060005260406000206000915054906101000a900473ffffffffffffffffffffffffffffffffffffffff1681565b6000809054906101000a900473ffffffffffffffffffffffffffffffffffffffff1673ffffffffffffffffffffffffffffffffffffffff163373ffffffffffffffffffffffffffffffffffffffff161415156106ea57600080fd5b600060149054906101000a900460ff16151561070557600080fd5b60008060146101000a81548160ff0219169083151502179055507f7805862f689e2f13df9f062ff482ad3ad112aca9e0847911ed832e158c525b3360405160405180910390a1565b600160009054906101000a900473ffffffffffffffffffffffffffffffffffffffff1681565b600060149054906101000a900460ff1681565b60006003600083815260200190815260200160002060009054906101000a900473ffffffffffffffffffffffffffffffffffffffff169050600073ffffffffffffffffffffffffffffffffffffffff168173ffffffffffffffffffffffffffffffffffffffff16141515156107fa57600080fd5b919050565b6000600460008373ffffffffffffffffffffffffffffffffffffffff1673ffffffffffffffffffffffffffffffffffffffff168152602001908152602001600020549050919050565b6000809054906101000a900473ffffffffffffffffffffffffffffffffffffffff1673ffffffffffffffffffffffffffffffffffffffff163373ffffffffffffffffffffffffffffffffffffffff161415156108a357600080fd5b600060149054906101000a900460ff161515156108bf57600080fd5b6001600060146101000a81548160ff0219169083151502179055507f6985a02210a168e66602d3235cb6db0e70f92b3ba4d376a33c0f3d9434bff62560405160405180910390a1565b80600160006101000a81548173ffffffffffffffffffffffffffffffffffffffff021916908373ffffffffffffffffffffffffffffffffffffffff16021790555050565b600060149054906101000a900460ff1615151561096857600080fd5b600073ffffffffffffffffffffffffffffffffffffffff168273ffffffffffffffffffffffffffffffffffffffff16141515156109a457600080fd5b6109ae3382610b38565b15156109b957600080fd5b6109c4338383610c66565b5050565b600080600191506109d882610e24565b9050610a066000809054906101000a900473ffffffffffffffffffffffffffffffffffffffff168483610c66565b505050565b60036020528060005260406000206000915054906101000a900473ffffffffffffffffffffffffffffffffffffffff1681565b6000809054906101000a900473ffffffffffffffffffffffffffffffffffffffff1681565b6000809054906101000a900473ffffffffffffffffffffffffffffffffffffffff1673ffffffffffffffffffffffffffffffffffffffff163373ffffffffffffffffffffffffffffffffffffffff16141515610abe57600080fd5b600073ffffffffffffffffffffffffffffffffffffffff168173ffffffffffffffffffffffffffffffffffffffff16141515610b3557806000806101000a81548173ffffffffffffffffffffffffffffffffffffffff021916908373ffffffffffffffffffffffffffffffffffffffff1602179055505b50565b60008273ffffffffffffffffffffffffffffffffffffffff166003600084815260200190815260200160002060009054906101000a900473ffffffffffffffffffffffffffffffffffffffff1673ffffffffffffffffffffffffffffffffffffffff1614905092915050565b806005600084815260200190815260200160002060006101000a81548173ffffffffffffffffffffffffffffffffffffffff021916908373ffffffffffffffffffffffffffffffffffffffff1602179055505050565b60008273ffffffffffffffffffffffffffffffffffffffff166005600084815260200190815260200160002060009054906101000a900473ffffffffffffffffffffffffffffffffffffffff1673ffffffffffffffffffffffffffffffffffffffff1614905092915050565b600460008373ffffffffffffffffffffffffffffffffffffffff1673ffffffffffffffffffffffffffffffffffffffff16815260200190815260200160002060008154809291906001019190505550816003600083815260200190815260200160002060006101000a81548173ffffffffffffffffffffffffffffffffffffffff021916908373ffffffffffffffffffffffffffffffffffffffff160217905550600073ffffffffffffffffffffffffffffffffffffffff168373ffffffffffffffffffffffffffffffffffffffff16141515610dc457600460008473ffffffffffffffffffffffffffffffffffffffff1673ffffffffffffffffffffffffffffffffffffffff16815260200190815260200160002060008154809291906001900391905055506005600082815260200190815260200160002060006101000a81549073ffffffffffffffffffffffffffffffffffffffff02191690555b808273ffffffffffffffffffffffffffffffffffffffff168473ffffffffffffffffffffffffffffffffffffffff167fddf252ad1be2c89b69c2b068fc378daa952ba7f163c4a11628f55a4df523b3ef60405160405180910390a4505050565b6000610e2e610ecb565b60006020604051908101604052808560ff168152509150600160028054806001018281610e5b9190610ee2565b9160005260206000209001600085909190915060008201518160000160006101000a81548160ff021916908360ff1602179055505050039050610ec160008060009054906101000a900473ffffffffffffffffffffffffffffffffffffffff1683610c66565b8092505050919050565b602060405190810160405280600060ff1681525090565b815481835581811511610f0957818360005260206000209182019101610f089190610f0e565b5b505050565b610f3e91905b80821115610f3a57600080820160006101000a81549060ff021916905550600101610f14565b5090565b905600a165627a7a72305820e36c3e6fbd8de38f86490e3c0ccf74abfa51e9ec68c95f8906f3a6ea695a01ca0029",
  "source": "pragma solidity ^0.4.18;\n\nimport \"./Pausable.sol\";\nimport \"./ERC721Draft.sol\";\n\n\ncontract RewardsCoinBase is Pausable, ERC721 {\n\nfunction RewardsCoinBase() public {\n    contractOwner = msg.sender;\n}\n\n\n  address public coinTypeFactoryAddress;\n\n\n  struct RewardsCoin {\n    uint8 coinType;\n  }\n\n\n  RewardsCoin[] rewardsCoins;\n\n   mapping (uint256 => address) public rewardsCoinIndexToOwner;\n   mapping (address => uint256) ownershipTokenCount;\n   mapping (uint256 => address) public rewardsCoinIndexToApproved;\n\n   // add onlyOwner\n  function setCoinTypeFactoryAddress(address addr) public {\n          coinTypeFactoryAddress = addr;\n  }\n\n  // add onlyOwner\n  function createAndSendCoin(address addr) public {\n    uint8 coinType = 1;\n    var newCoinId = _createRewardsCoin(coinType);\n    _transfer(contractOwner, addr, newCoinId);\n  }\n\n\n  function _createRewardsCoin(uint8 _coinType) internal returns (uint)\n  {\n      RewardsCoin memory _rewardsCoin = RewardsCoin({\n          coinType: _coinType\n      });\n      uint256 newRewardsCoinId = rewardsCoins.push(_rewardsCoin) - 1;\n\n      // This will assign ownership, and also emit the Transfer event as\n      // per ERC721 draft\n      _transfer(0, contractOwner, newRewardsCoinId);\n\n      return newRewardsCoinId;\n  }\n\n\n\n  function implementsERC721() public pure returns (bool)\n  {\n      return true;\n  }\n\n  function totalSupply() public view returns (uint) {\n      return rewardsCoins.length - 1;\n  }\n\n  function ownerOf(uint256 _tokenId) public view returns (address owner)\n  {\n      owner = rewardsCoinIndexToOwner[_tokenId];\n      require(owner != address(0));\n  }\n\n  function _approve(uint256 _tokenId, address _approved) internal {\n    rewardsCoinIndexToApproved[_tokenId] = _approved;\n  }\n\n  function _approvedFor(address _claimant, uint256 _tokenId) internal view returns (bool) {\n    return rewardsCoinIndexToApproved[_tokenId] == _claimant;\n  }\n\n  function _owns(address _claimant, uint256 _tokenId) internal view returns (bool) {\n    return rewardsCoinIndexToOwner[_tokenId] == _claimant;\n  }\n\n  function balanceOf(address _owner) public view returns (uint256 count) {\n    return ownershipTokenCount[_owner];\n}\n\n  function approve(address _to, uint256 _tokenId) public whenNotPaused\n  {\n      // Only an owner can grant transfer approval.\n      require(_owns(msg.sender, _tokenId));\n\n      // Register the approval (replacing any previous approval).\n      _approve(_tokenId, _to);\n\n      // Emit approval event.\n      Approval(msg.sender, _to, _tokenId);\n  }\n\n  function transferFrom(address _from, address _to, uint256 _tokenId) public whenNotPaused\n  {\n      // Check for approval and valid ownership\n      require(_approvedFor(msg.sender, _tokenId));\n      require(_owns(_from, _tokenId));\n\n      // Reassign ownership (also clears pending approvals and emits Transfer event).\n      _transfer(_from, _to, _tokenId);\n  }\n\n  function transfer(address _to, uint256 _tokenId) public whenNotPaused\n  {\n      // Safety check to prevent against an unexpected 0x0 default.\n      require(_to != address(0));\n      // You can only send your own cat.\n      require(_owns(msg.sender, _tokenId));\n\n      // Reassign ownership, clear pending approvals, emit Transfer event.\n      _transfer(msg.sender, _to, _tokenId);\n  }\n\n  function _transfer(address _from, address _to, uint256 _tokenId) internal {\n      ownershipTokenCount[_to]++;\n      // transfer ownership\n      rewardsCoinIndexToOwner[_tokenId] = _to;\n      if (_from != address(0)) {\n          ownershipTokenCount[_from]--;\n          // clear any previously approved ownership exchange\n          delete rewardsCoinIndexToApproved[_tokenId];\n      }\n      // Emit the transfer event.\n      Transfer(_from, _to, _tokenId);\n  }\n\n\n}\n",
  "sourcePath": "/Users/simondrake/Desktop/rewardscoin/contracts/RewardsCoinBase.sol",
  "compiler": {
    "name": "solc",
    "version": "0.4.18+commit.9cf6e910.Emscripten.clang"
  },
  "schemaVersion": "1.0.1",
  "updatedAt": "2017-12-21T14:54:37.034Z"
}